{
  "contractName": "ETH_Pool",
  "abi": [
    {
      "inputs": [],
      "stateMutability": "nonpayable",
      "type": "constructor"
    },
    {
      "inputs": [
        {
          "internalType": "address",
          "name": "",
          "type": "address"
        }
      ],
      "name": "lastRun",
      "outputs": [
        {
          "internalType": "uint256",
          "name": "",
          "type": "uint256"
        }
      ],
      "stateMutability": "view",
      "type": "function"
    },
    {
      "inputs": [],
      "name": "poolBalance",
      "outputs": [
        {
          "internalType": "uint256",
          "name": "",
          "type": "uint256"
        }
      ],
      "stateMutability": "view",
      "type": "function"
    },
    {
      "inputs": [],
      "name": "reward",
      "outputs": [
        {
          "internalType": "uint256",
          "name": "",
          "type": "uint256"
        }
      ],
      "stateMutability": "view",
      "type": "function"
    },
    {
      "inputs": [
        {
          "internalType": "address",
          "name": "",
          "type": "address"
        }
      ],
      "name": "userDeposit",
      "outputs": [
        {
          "internalType": "uint256",
          "name": "",
          "type": "uint256"
        }
      ],
      "stateMutability": "view",
      "type": "function"
    },
    {
      "inputs": [
        {
          "internalType": "address",
          "name": "",
          "type": "address"
        }
      ],
      "name": "userEarned",
      "outputs": [
        {
          "internalType": "uint256",
          "name": "",
          "type": "uint256"
        }
      ],
      "stateMutability": "view",
      "type": "function"
    },
    {
      "inputs": [],
      "name": "deposit",
      "outputs": [],
      "stateMutability": "payable",
      "type": "function"
    },
    {
      "inputs": [],
      "name": "withdraw",
      "outputs": [],
      "stateMutability": "nonpayable",
      "type": "function"
    },
    {
      "inputs": [],
      "name": "cleanPool",
      "outputs": [],
      "stateMutability": "nonpayable",
      "type": "function"
    }
  ],
  "bytecode": "0x608060405234801561000f575f80fd5b50335f806101000a81548173ffffffffffffffffffffffffffffffffffffffff021916908373ffffffffffffffffffffffffffffffffffffffff160217905550610e8d8061005c5f395ff3fe60806040526004361061007a575f3560e01c806396365d441161004d57806396365d4414610110578063cba725401461013a578063d0e30db014610176578063d1260edd146101805761007a565b806320d8d9691461007e578063228cb733146100945780633ccfd60b146100be578063407ffe76146100d4575b5f80fd5b348015610089575f80fd5b506100926101bc565b005b34801561009f575f80fd5b506100a86102c6565b6040516100b59190610a25565b60405180910390f35b3480156100c9575f80fd5b506100d26102cc565b005b3480156100df575f80fd5b506100fa60048036038101906100f59190610a9c565b6107f9565b6040516101079190610a25565b60405180910390f35b34801561011b575f80fd5b5061012461080e565b6040516101319190610a25565b60405180910390f35b348015610145575f80fd5b50610160600480360381019061015b9190610a9c565b610814565b60405161016d9190610a25565b60405180910390f35b61017e610829565b005b34801561018b575f80fd5b506101a660048036038101906101a19190610a9c565b6109e3565b6040516101b39190610a25565b60405180910390f35b5f8054906101000a900473ffffffffffffffffffffffffffffffffffffffff1673ffffffffffffffffffffffffffffffffffffffff163373ffffffffffffffffffffffffffffffffffffffff1614610249576040517f08c379a000000000000000000000000000000000000000000000000000000000815260040161024090610b21565b60405180910390fd5b5f60015414801561025957505f47115b610261575f80fd5b5f8054906101000a900473ffffffffffffffffffffffffffffffffffffffff1673ffffffffffffffffffffffffffffffffffffffff166108fc4790811502906040515f60405180830381858888f193505050501580156102c3573d5f803e3d5ffd5b50565b60025481565b5f8054906101000a900473ffffffffffffffffffffffffffffffffffffffff1673ffffffffffffffffffffffffffffffffffffffff163373ffffffffffffffffffffffffffffffffffffffff1603610359576040517f08c379a000000000000000000000000000000000000000000000000000000000815260040161035090610b89565b60405180910390fd5b60045460035410156103a0576040517f08c379a000000000000000000000000000000000000000000000000000000000815260040161039790610bf1565b60405180910390fd5b5f60055f3373ffffffffffffffffffffffffffffffffffffffff1673ffffffffffffffffffffffffffffffffffffffff1681526020019081526020015f20541161041f576040517f08c379a000000000000000000000000000000000000000000000000000000000815260040161041690610c59565b60405180910390fd5b602d60085f3373ffffffffffffffffffffffffffffffffffffffff1673ffffffffffffffffffffffffffffffffffffffff1681526020019081526020015f20544261046a9190610ca4565b111561062e575f60055f3373ffffffffffffffffffffffffffffffffffffffff1673ffffffffffffffffffffffffffffffffffffffff1681526020019081526020015f205490505f6064600254600154606460055f3373ffffffffffffffffffffffffffffffffffffffff1673ffffffffffffffffffffffffffffffffffffffff1681526020019081526020015f20546105049190610cd7565b61050e9190610d45565b6105189190610cd7565b6105229190610d45565b90503373ffffffffffffffffffffffffffffffffffffffff166108fc828461054a9190610d75565b90811502906040515f60405180830381858888f19350505050158015610572573d5f803e3d5ffd5b505f60055f3373ffffffffffffffffffffffffffffffffffffffff1673ffffffffffffffffffffffffffffffffffffffff1681526020019081526020015f20819055508060075f3373ffffffffffffffffffffffffffffffffffffffff1673ffffffffffffffffffffffffffffffffffffffff1681526020019081526020015f205f8282546106019190610d75565b9250508190555060045f81548092919061061a90610da8565b91905055506106276109f8565b50506107f7565b5f60055f3373ffffffffffffffffffffffffffffffffffffffff1673ffffffffffffffffffffffffffffffffffffffff1681526020019081526020015f205490505f6064600254600154606460055f3373ffffffffffffffffffffffffffffffffffffffff1673ffffffffffffffffffffffffffffffffffffffff1681526020019081526020015f20546106c29190610cd7565b6106cc9190610d45565b6106d69190610cd7565b6106e09190610d45565b90506002816106ef9190610d45565b90503373ffffffffffffffffffffffffffffffffffffffff166108fc82846107179190610d75565b90811502906040515f60405180830381858888f1935050505015801561073f573d5f803e3d5ffd5b505f60055f3373ffffffffffffffffffffffffffffffffffffffff1673ffffffffffffffffffffffffffffffffffffffff1681526020019081526020015f20819055508060075f3373ffffffffffffffffffffffffffffffffffffffff1673ffffffffffffffffffffffffffffffffffffffff1681526020019081526020015f205f8282546107ce9190610d75565b9250508190555060045f8154809291906107e790610da8565b91905055506107f46109f8565b50505b565b6008602052805f5260405f205f915090505481565b60015481565b6007602052805f5260405f205f915090505481565b5f8054906101000a900473ffffffffffffffffffffffffffffffffffffffff1673ffffffffffffffffffffffffffffffffffffffff163373ffffffffffffffffffffffffffffffffffffffff1603610887573460028190555061099f565b3460055f3373ffffffffffffffffffffffffffffffffffffffff1673ffffffffffffffffffffffffffffffffffffffff1681526020019081526020015f205f8282546108d39190610d75565b925050819055503460065f3373ffffffffffffffffffffffffffffffffffffffff1673ffffffffffffffffffffffffffffffffffffffff1681526020019081526020015f205f8282546109269190610d75565b925050819055503460015f82825461093e9190610d75565b9250508190555060035f81548092919061095790610da8565b91905055504260085f3373ffffffffffffffffffffffffffffffffffffffff1673ffffffffffffffffffffffffffffffffffffffff1681526020019081526020015f20819055505b5f34116109e1576040517f08c379a00000000000000000000000000000000000000000000000000000000081526004016109d890610e39565b60405180910390fd5b565b6006602052805f5260405f205f915090505481565b60035460045403610a0b575f6001819055505b565b5f819050919050565b610a1f81610a0d565b82525050565b5f602082019050610a385f830184610a16565b92915050565b5f80fd5b5f73ffffffffffffffffffffffffffffffffffffffff82169050919050565b5f610a6b82610a42565b9050919050565b610a7b81610a61565b8114610a85575f80fd5b50565b5f81359050610a9681610a72565b92915050565b5f60208284031215610ab157610ab0610a3e565b5b5f610abe84828501610a88565b91505092915050565b5f82825260208201905092915050565b7f4f6e6c79206f776e65722063616e20636c65616e2074686520706f6f6c2100005f82015250565b5f610b0b601e83610ac7565b9150610b1682610ad7565b602082019050919050565b5f6020820190508181035f830152610b3881610aff565b9050919050565b7f4f776e65722063616e27742077697468647261210000000000000000000000005f82015250565b5f610b73601483610ac7565b9150610b7e82610b3f565b602082019050919050565b5f6020820190508181035f830152610ba081610b67565b9050919050565b7f416c6c20726577617264732061726520636c65616e65642100000000000000005f82015250565b5f610bdb601883610ac7565b9150610be682610ba7565b602082019050919050565b5f6020820190508181035f830152610c0881610bcf565b9050919050565b7f596f75207769746864726177206265666f7221000000000000000000000000005f82015250565b5f610c43601383610ac7565b9150610c4e82610c0f565b602082019050919050565b5f6020820190508181035f830152610c7081610c37565b9050919050565b7f4e487b71000000000000000000000000000000000000000000000000000000005f52601160045260245ffd5b5f610cae82610a0d565b9150610cb983610a0d565b9250828203905081811115610cd157610cd0610c77565b5b92915050565b5f610ce182610a0d565b9150610cec83610a0d565b9250828202610cfa81610a0d565b91508282048414831517610d1157610d10610c77565b5b5092915050565b7f4e487b71000000000000000000000000000000000000000000000000000000005f52601260045260245ffd5b5f610d4f82610a0d565b9150610d5a83610a0d565b925082610d6a57610d69610d18565b5b828204905092915050565b5f610d7f82610a0d565b9150610d8a83610a0d565b9250828201905080821115610da257610da1610c77565b5b92915050565b5f610db282610a0d565b91507fffffffffffffffffffffffffffffffffffffffffffffffffffffffffffffffff8203610de457610de3610c77565b5b600182019050919050565b7f43616e2774206465706f736974206e6f7468696e6721000000000000000000005f82015250565b5f610e23601683610ac7565b9150610e2e82610def565b602082019050919050565b5f6020820190508181035f830152610e5081610e17565b905091905056fea264697066735822122070ef3a71b5b71e3a6e7f9b133a275906ac0d4cde206ff5e30776a40e041e764c64736f6c63430008170033",
  "immutableReferences": {},
  "source": "//SPDX-License-Identifier: MIT\r\npragma solidity >= 0.8.0 < 0.9.0;\r\n\r\ncontract ETH_Pool {\r\n\r\n    address owner;\r\n    uint public poolBalance;\r\n    uint public reward;\r\n    uint countDeposit;\r\n    uint countWithdraw;\r\n\r\n    mapping(address => uint) userDeposit_COMPUTE;\r\n    mapping(address => uint) public userDeposit;\r\n    mapping(address => uint) public userEarned;\r\n    mapping(address => uint) public lastRun;\r\n\r\n    constructor() {\r\n        owner = msg.sender;\r\n    }\r\n    \r\n    function deposit() public payable {\r\n        if(msg.sender == owner) {\r\n            reward = msg.value;\r\n\r\n        }\r\n        else {\r\n            userDeposit_COMPUTE[msg.sender] += msg.value;\r\n            userDeposit[msg.sender] += msg.value;\r\n            poolBalance += msg.value;\r\n            countDeposit++; //Number of deposits\r\n            lastRun[msg.sender] = block.timestamp;\r\n        }\r\n        require(msg.value > 0, \"Can't deposit nothing!\");\r\n    }\r\n\r\n    function ifTheAllRewardsAreWithdraw() private {\r\n        if(countWithdraw == countDeposit)\r\n            poolBalance = 0;\r\n    }\r\n\r\n    function withdraw() public {\r\n        \r\n        // require(block.timestamp - lastRun[msg.sender] > 1 minutes, \"You cannot withdraw befor \");\r\n        require(msg.sender != owner, \"Owner can't withdra!\"); //Ensuring that the owner cannot withdraw\r\n        require(countDeposit >= countWithdraw, \"All rewards are cleaned!\"); //Preventing additional Trx after withdrawal of all users\r\n        require(userDeposit_COMPUTE[msg.sender] > 0, \"You withdraw befor!\"); //Preventing withdraw again\r\n\r\n        if(block.timestamp - lastRun[msg.sender] > 45 seconds) {\r\n            // Calculate the percentage of users' rewards:\r\n            uint temp1 = userDeposit_COMPUTE[msg.sender]; \r\n            uint temp2 = (((userDeposit_COMPUTE[msg.sender]*100) / poolBalance) * reward) / 100;\r\n\r\n            // Transfer the users `reward + balance` to `msg.sender`: \r\n            payable(msg.sender).transfer(temp1 + temp2);\r\n\r\n            userDeposit_COMPUTE[msg.sender] = 0; \r\n            userEarned[msg.sender] += temp2; //temp2 is the percentage of users' earned reward at this withdraw\r\n            countWithdraw++; //Number of withdrawals\r\n\r\n            // Check that if all users have withdrawan their own reward and deposits\r\n            // the `poolBalance` will be equal zero for next `ETHPool events`!\r\n            //\r\n            // If `poolBalance` doesn't equal to 0, then in the second and more `ETHPool events` the `poolBalance` in\r\n            // `temp2` will be a larger number than actual pool balance\r\n            // and `temp2` will be a wrong and less number and users rewards will not pay completely.\r\n            ifTheAllRewardsAreWithdraw();\r\n        }\r\n        else {\r\n            uint temp1 = userDeposit_COMPUTE[msg.sender]; \r\n            uint temp2 = (((userDeposit_COMPUTE[msg.sender]*100) / poolBalance) * reward) / 100;\r\n            temp2 = temp2 / 2; //Due to the withdrawal before the deadline(a week), The user will receive only half of the reward\r\n\r\n            payable(msg.sender).transfer(temp1 + temp2);\r\n\r\n            userDeposit_COMPUTE[msg.sender] = 0; \r\n            userEarned[msg.sender] += temp2;\r\n            countWithdraw++;\r\n\r\n            ifTheAllRewardsAreWithdraw();\r\n        }\r\n\r\n    }\r\n\r\n    function cleanPool() public {\r\n        require(msg.sender == owner, \"Only owner can clean the pool!\");\r\n        require(poolBalance == 0 && address(this).balance > 0);\r\n\r\n        payable(owner).transfer(address(this).balance);\r\n\r\n    }\r\n}\r\n\r\n/*\r\n    ETHPool CHALLENGE:\r\n      ETHPool provides a service where people can deposit ETH and they will receive weekly rewards.\r\n      Users must be able to take out their deposits along with their portion of rewards at any time.\r\n      New rewards are deposited manually into the pool by the ETHPool team each week using a contract function.\r\n    ---------------\r\n    Requirements:\r\n      -Only the team can deposit rewards.\r\n      -Deposited rewards go to the pool of users, not to individual users.\r\n      -Users should be able to withdraw their deposits along with their share of rewards considering the\r\n       time when they deposited.\r\n    ---------------\r\n    Example:\r\n      Let say we have user A and B and team T.\r\n      A deposits 100, and B deposits 300 for a total of 400 in the pool. Now A has 25% of the pool and B has 75%.\r\n      When T deposits 200 rewards, A should be able to withdraw 150 and B 450.\r\n      What if the following happens? A deposits then T deposits then B deposits then A withdraws and finally B withdraws.\r\n      A should get their deposit + all the rewards. B should only get their deposit because rewards were sent\r\n      to the pool before they participated.\r\n    ---------------\r\n    Goal:\r\n    -Design and code a contract for ETHPool, take all the assumptions you need to move forward.\r\n    -You can use any development tools you prefer: Hardhat, Truffle, Brownie, Solidity, Vyper.\r\n*/\r\n\r\n\r\n// problems:\r\n//   -Becuase of `poolBalance` that it wont be 0 after all withdrawals, in the \r\n//    second or more withdrawals it will divide the user's reward twoice and more.\r\n// IT SOLVED !!!!!! YOOHOOO\r\n",
  "sourcePath": "/media/yrh/WORK/1.projects/jobhunt/mxc-solidity/solidity-challenge/contracts/ETH_Pool.sol",
  "compiler": {
    "name": "solc",
    "version": "0.8.23+commit.f704f362.Emscripten.clang"
  },
  "schemaVersion": "3.4.16",
  "updatedAt": "2023-12-29T07:56:25.625Z",
  "devdoc": {
    "kind": "dev",
    "methods": {},
    "version": 1
  },
  "userdoc": {
    "kind": "user",
    "methods": {},
    "version": 1
  }
}