{
  "contractName": "ZLEthPool",
  "abi": [
    {
      "inputs": [],
      "stateMutability": "nonpayable",
      "type": "constructor"
    },
    {
      "inputs": [],
      "name": "allDeposited",
      "outputs": [
        {
          "internalType": "uint256",
          "name": "",
          "type": "uint256"
        }
      ],
      "stateMutability": "view",
      "type": "function"
    },
    {
      "inputs": [],
      "name": "countDeposits",
      "outputs": [
        {
          "internalType": "uint256",
          "name": "",
          "type": "uint256"
        }
      ],
      "stateMutability": "view",
      "type": "function"
    },
    {
      "inputs": [],
      "name": "countWithdraws",
      "outputs": [
        {
          "internalType": "uint256",
          "name": "",
          "type": "uint256"
        }
      ],
      "stateMutability": "view",
      "type": "function"
    },
    {
      "inputs": [],
      "name": "reward",
      "outputs": [
        {
          "internalType": "uint256",
          "name": "",
          "type": "uint256"
        }
      ],
      "stateMutability": "view",
      "type": "function"
    },
    {
      "inputs": [],
      "name": "rewardAddedAt",
      "outputs": [
        {
          "internalType": "uint256",
          "name": "",
          "type": "uint256"
        }
      ],
      "stateMutability": "view",
      "type": "function"
    },
    {
      "inputs": [],
      "name": "team",
      "outputs": [
        {
          "internalType": "address",
          "name": "",
          "type": "address"
        }
      ],
      "stateMutability": "view",
      "type": "function"
    },
    {
      "inputs": [
        {
          "internalType": "address",
          "name": "",
          "type": "address"
        }
      ],
      "name": "userDepositedAt",
      "outputs": [
        {
          "internalType": "uint256",
          "name": "",
          "type": "uint256"
        }
      ],
      "stateMutability": "view",
      "type": "function"
    },
    {
      "inputs": [
        {
          "internalType": "address",
          "name": "",
          "type": "address"
        }
      ],
      "name": "userDeposits",
      "outputs": [
        {
          "internalType": "uint256",
          "name": "",
          "type": "uint256"
        }
      ],
      "stateMutability": "view",
      "type": "function"
    },
    {
      "inputs": [],
      "name": "deposit",
      "outputs": [],
      "stateMutability": "payable",
      "type": "function"
    },
    {
      "inputs": [
        {
          "internalType": "address",
          "name": "user",
          "type": "address"
        }
      ],
      "name": "calcReward",
      "outputs": [
        {
          "internalType": "uint256",
          "name": "userReward",
          "type": "uint256"
        }
      ],
      "stateMutability": "view",
      "type": "function"
    },
    {
      "inputs": [],
      "name": "withdraw",
      "outputs": [],
      "stateMutability": "nonpayable",
      "type": "function"
    },
    {
      "inputs": [],
      "name": "clearPool",
      "outputs": [],
      "stateMutability": "nonpayable",
      "type": "function"
    }
  ],
  "bytecode": "0x608060405234801561000f575f80fd5b50335f806101000a81548173ffffffffffffffffffffffffffffffffffffffff021916908373ffffffffffffffffffffffffffffffffffffffff160217905550610a768061005c5f395ff3fe6080604052600436106100a6575f3560e01c806362fcc29e1161006357806362fcc29e146101b657806368a85397146101f257806385f2aef21461021c578063d0e30db014610246578063ecc388f614610250578063f290af3114610266576100a6565b80630ba36dcd146100aa578063228cb733146100e657806330f11600146101105780633a61738d1461013a5780633ccfd60b14610176578063431562b91461018c575b5f80fd5b3480156100b5575f80fd5b506100d060048036038101906100cb9190610836565b610290565b6040516100dd9190610879565b60405180910390f35b3480156100f1575f80fd5b506100fa6102a5565b6040516101079190610879565b60405180910390f35b34801561011b575f80fd5b506101246102ab565b6040516101319190610879565b60405180910390f35b348015610145575f80fd5b50610160600480360381019061015b9190610836565b6102b1565b60405161016d9190610879565b60405180910390f35b348015610181575f80fd5b5061018a6103c2565b005b348015610197575f80fd5b506101a0610543565b6040516101ad9190610879565b60405180910390f35b3480156101c1575f80fd5b506101dc60048036038101906101d79190610836565b610549565b6040516101e99190610879565b60405180910390f35b3480156101fd575f80fd5b5061020661055e565b6040516102139190610879565b60405180910390f35b348015610227575f80fd5b50610230610564565b60405161023d91906108a1565b60405180910390f35b61024e610587565b005b34801561025b575f80fd5b506102646106be565b005b348015610271575f80fd5b5061027a61075c565b6040516102879190610879565b60405180910390f35b6004602052805f5260405f205f915090505481565b60015481565b60035481565b5f806001541180156102c457505f600254115b6102cc575f80fd5b5f6003541180156102e05750600754600654115b6102e8575f80fd5b5f60045f8473ffffffffffffffffffffffffffffffffffffffff1673ffffffffffffffffffffffffffffffffffffffff1681526020019081526020015f205490505f8111610334575f80fd5b5f915060025460055f8573ffffffffffffffffffffffffffffffffffffffff1673ffffffffffffffffffffffffffffffffffffffff1681526020019081526020015f2054116103bc575f62093a80905062093a80600354826001548561039a91906108e7565b6103a491906108e7565b6103ae9190610955565b6103b89190610955565b9250505b50919050565b5f8054906101000a900473ffffffffffffffffffffffffffffffffffffffff1673ffffffffffffffffffffffffffffffffffffffff163373ffffffffffffffffffffffffffffffffffffffff1603610418575f80fd5b5f610422336102b1565b60045f3373ffffffffffffffffffffffffffffffffffffffff1673ffffffffffffffffffffffffffffffffffffffff1681526020019081526020015f205461046a9190610985565b90505f60045f3373ffffffffffffffffffffffffffffffffffffffff1673ffffffffffffffffffffffffffffffffffffffff1681526020019081526020015f20819055505f60055f3373ffffffffffffffffffffffffffffffffffffffff1673ffffffffffffffffffffffffffffffffffffffff1681526020019081526020015f20819055506104fa3382610762565b60075f81548092919061050c906109b8565b919050555060075460065411610540575f6001819055505f6002819055505f6003819055505f6006819055505f6007819055505b50565b60075481565b6005602052805f5260405f205f915090505481565b60065481565b5f8054906101000a900473ffffffffffffffffffffffffffffffffffffffff1681565b5f3411610592575f80fd5b5f8054906101000a900473ffffffffffffffffffffffffffffffffffffffff1673ffffffffffffffffffffffffffffffffffffffff163373ffffffffffffffffffffffffffffffffffffffff16036105f75734600181905550426002819055506106bc565b3460045f3373ffffffffffffffffffffffffffffffffffffffff1673ffffffffffffffffffffffffffffffffffffffff1681526020019081526020015f205f8282546106439190610985565b925050819055504260055f3373ffffffffffffffffffffffffffffffffffffffff1673ffffffffffffffffffffffffffffffffffffffff1681526020019081526020015f20819055503460035f82825461069d9190610985565b9250508190555060065f8154809291906106b6906109b8565b91905055505b565b5f8054906101000a900473ffffffffffffffffffffffffffffffffffffffff1673ffffffffffffffffffffffffffffffffffffffff163373ffffffffffffffffffffffffffffffffffffffff1614801561071957505f600354145b610721575f80fd5b5f4790505f8111610730575f80fd5b6107595f8054906101000a900473ffffffffffffffffffffffffffffffffffffffff1682610762565b50565b60025481565b5f8273ffffffffffffffffffffffffffffffffffffffff168260405161078790610a2c565b5f6040518083038185875af1925050503d805f81146107c1576040519150601f19603f3d011682016040523d82523d5f602084013e6107c6565b606091505b50509050806107d3575f80fd5b505050565b5f80fd5b5f73ffffffffffffffffffffffffffffffffffffffff82169050919050565b5f610805826107dc565b9050919050565b610815816107fb565b811461081f575f80fd5b50565b5f813590506108308161080c565b92915050565b5f6020828403121561084b5761084a6107d8565b5b5f61085884828501610822565b91505092915050565b5f819050919050565b61087381610861565b82525050565b5f60208201905061088c5f83018461086a565b92915050565b61089b816107fb565b82525050565b5f6020820190506108b45f830184610892565b92915050565b7f4e487b71000000000000000000000000000000000000000000000000000000005f52601160045260245ffd5b5f6108f182610861565b91506108fc83610861565b925082820261090a81610861565b91508282048414831517610921576109206108ba565b5b5092915050565b7f4e487b71000000000000000000000000000000000000000000000000000000005f52601260045260245ffd5b5f61095f82610861565b915061096a83610861565b92508261097a57610979610928565b5b828204905092915050565b5f61098f82610861565b915061099a83610861565b92508282019050808211156109b2576109b16108ba565b5b92915050565b5f6109c282610861565b91507fffffffffffffffffffffffffffffffffffffffffffffffffffffffffffffffff82036109f4576109f36108ba565b5b600182019050919050565b5f81905092915050565b50565b5f610a175f836109ff565b9150610a2282610a09565b5f82019050919050565b5f610a3682610a0c565b915081905091905056fea26469706673582212204a96d1a118ca8d219264b630f4ff7b4a02cce87ba4e4d865bf5d5b508b5ff89764736f6c63430008170033",
  "immutableReferences": {},
  "source": "//SPDX-License-Identifier: MIT\npragma solidity >= 0.8.0 < 0.9.0;\n\ncontract ZLEthPool {\n    address public team;\n\n    uint public reward;\n    uint public rewardAddedAt;\n\n    uint public allDeposited;\n    mapping(address => uint) public userDeposits;\n    mapping(address => uint) public userDepositedAt;\n    uint public countDeposits;\n    uint public countWithdraws;\n\n    constructor() {\n        team = msg.sender;\n    }\n\n    function deposit() payable external {\n        require(msg.value > 0);\n\n        if (msg.sender == team) {\n            reward = msg.value;\n            rewardAddedAt = block.timestamp;\n        } else {\n            userDeposits[msg.sender] += msg.value;\n            userDepositedAt[msg.sender] = block.timestamp;\n            allDeposited += msg.value;\n            countDeposits++;\n        }\n    }\n\n    function calcReward(address user) view public returns (uint userReward)  {\n        require(reward > 0 && rewardAddedAt > 0);\n        require(allDeposited > 0 && countDeposits > countWithdraws);\n\n        uint userDeposit = userDeposits[user];\n        require(userDeposit > 0);\n\n        userReward = 0;\n        if (userDepositedAt[user] <= rewardAddedAt) {\n//            uint diff = rewardAddedAt = userDepositedAt[msg.sender];\n//            if (diff > 45 seconds) {\n            uint diff = 1 weeks;\n            userReward = ((userDeposit * reward * diff) / allDeposited) / 1 weeks;\n//            }\n        }\n    }\n\n    function withdraw() external {\n        require(msg.sender != team);\n\n        uint userAmount = userDeposits[msg.sender] + calcReward(msg.sender);\n\n        userDeposits[msg.sender] = 0;\n        userDepositedAt[msg.sender] = 0;\n        _sendBalance(msg.sender, userAmount);\n\n        countWithdraws++;\n        if (countDeposits <= countWithdraws) {\n            reward = 0;\n            rewardAddedAt = 0;\n\n            allDeposited = 0;\n            countDeposits = 0;\n            countWithdraws = 0;\n        }\n    }\n\n    function clearPool() external {\n        require(msg.sender == team && allDeposited == 0);\n\n        uint balance = address(this).balance;\n        require(balance > 0);\n\n        _sendBalance(team, balance);\n    }\n\n    function _sendBalance(address to, uint amount) private {\n        (bool success,) = payable(to).call{value: amount}(\"\");\n        require(success);\n    }\n}\n",
  "sourcePath": "/media/yrh/WORK/1.projects/jobhunt/mxc-solidity/solidity-challenge/contracts/ZLEthPool.sol",
  "compiler": {
    "name": "solc",
    "version": "0.8.23+commit.f704f362.Emscripten.clang"
  },
  "schemaVersion": "3.4.16",
  "updatedAt": "2023-12-29T15:45:10.220Z",
  "devdoc": {
    "kind": "dev",
    "methods": {},
    "version": 1
  },
  "userdoc": {
    "kind": "user",
    "methods": {},
    "version": 1
  }
}