{
  "contractName": "ZLEthPool",
  "abi": [
    {
      "inputs": [],
      "stateMutability": "nonpayable",
      "type": "constructor"
    },
    {
      "inputs": [],
      "name": "countDeposits",
      "outputs": [
        {
          "internalType": "uint256",
          "name": "",
          "type": "uint256"
        }
      ],
      "stateMutability": "view",
      "type": "function",
      "constant": true
    },
    {
      "inputs": [],
      "name": "countWithdraws",
      "outputs": [
        {
          "internalType": "uint256",
          "name": "",
          "type": "uint256"
        }
      ],
      "stateMutability": "view",
      "type": "function",
      "constant": true
    },
    {
      "inputs": [],
      "name": "depositsBeforeReward",
      "outputs": [
        {
          "internalType": "uint256",
          "name": "",
          "type": "uint256"
        }
      ],
      "stateMutability": "view",
      "type": "function",
      "constant": true
    },
    {
      "inputs": [],
      "name": "reward",
      "outputs": [
        {
          "internalType": "uint256",
          "name": "",
          "type": "uint256"
        }
      ],
      "stateMutability": "view",
      "type": "function",
      "constant": true
    },
    {
      "inputs": [],
      "name": "rewardAddedAt",
      "outputs": [
        {
          "internalType": "uint256",
          "name": "",
          "type": "uint256"
        }
      ],
      "stateMutability": "view",
      "type": "function",
      "constant": true
    },
    {
      "inputs": [],
      "name": "team",
      "outputs": [
        {
          "internalType": "address",
          "name": "",
          "type": "address"
        }
      ],
      "stateMutability": "view",
      "type": "function",
      "constant": true
    },
    {
      "inputs": [
        {
          "internalType": "address",
          "name": "",
          "type": "address"
        }
      ],
      "name": "userDepositedAt",
      "outputs": [
        {
          "internalType": "uint256",
          "name": "",
          "type": "uint256"
        }
      ],
      "stateMutability": "view",
      "type": "function",
      "constant": true
    },
    {
      "inputs": [
        {
          "internalType": "address",
          "name": "",
          "type": "address"
        }
      ],
      "name": "userDeposits",
      "outputs": [
        {
          "internalType": "uint256",
          "name": "",
          "type": "uint256"
        }
      ],
      "stateMutability": "view",
      "type": "function",
      "constant": true
    },
    {
      "inputs": [],
      "name": "deposit",
      "outputs": [],
      "stateMutability": "payable",
      "type": "function",
      "payable": true
    },
    {
      "inputs": [
        {
          "internalType": "address",
          "name": "user",
          "type": "address"
        }
      ],
      "name": "calcReward",
      "outputs": [
        {
          "internalType": "uint256",
          "name": "userReward",
          "type": "uint256"
        }
      ],
      "stateMutability": "view",
      "type": "function",
      "constant": true
    },
    {
      "inputs": [],
      "name": "withdraw",
      "outputs": [],
      "stateMutability": "nonpayable",
      "type": "function"
    },
    {
      "inputs": [],
      "name": "clearPool",
      "outputs": [],
      "stateMutability": "nonpayable",
      "type": "function"
    }
  ],
  "bytecode": "0x608060405234801561000f575f80fd5b50335f806101000a81548173ffffffffffffffffffffffffffffffffffffffff021916908373ffffffffffffffffffffffffffffffffffffffff1602179055505f6001819055505f600281905550610f2b8061006a5f395ff3fe6080604052600436106100a6575f3560e01c806362fcc29e1161006357806362fcc29e146101b657806368a85397146101f257806385f2aef21461021c578063d0e30db014610246578063ecc388f614610250578063f290af3114610266576100a6565b80630ba36dcd146100aa578063228cb733146100e65780633a61738d146101105780633ccfd60b1461014c578063431562b9146101625780635cebb2bb1461018c575b5f80fd5b3480156100b5575f80fd5b506100d060048036038101906100cb9190610a12565b610290565b6040516100dd9190610a55565b60405180910390f35b3480156100f1575f80fd5b506100fa6102a5565b6040516101079190610a55565b60405180910390f35b34801561011b575f80fd5b5061013660048036038101906101319190610a12565b6102ab565b6040516101439190610a55565b60405180910390f35b348015610157575f80fd5b506101606104c3565b005b34801561016d575f80fd5b5061017661067b565b6040516101839190610a55565b60405180910390f35b348015610197575f80fd5b506101a0610681565b6040516101ad9190610a55565b60405180910390f35b3480156101c1575f80fd5b506101dc60048036038101906101d79190610a12565b610687565b6040516101e99190610a55565b60405180910390f35b3480156101fd575f80fd5b5061020661069c565b6040516102139190610a55565b60405180910390f35b348015610227575f80fd5b506102306106a2565b60405161023d9190610a7d565b60405180910390f35b61024e6106c5565b005b34801561025b575f80fd5b5061026461089c565b005b348015610271575f80fd5b5061027a610938565b6040516102879190610a55565b60405180910390f35b6004602052805f5260405f205f915090505481565b60015481565b5f806001541180156102be57505f600254115b6102fd576040517f08c379a00000000000000000000000000000000000000000000000000000000081526004016102f490610af0565b60405180910390fd5b5f6003541180156103115750600754600654115b610350576040517f08c379a000000000000000000000000000000000000000000000000000000000815260040161034790610b58565b60405180910390fd5b5f60045f8473ffffffffffffffffffffffffffffffffffffffff1673ffffffffffffffffffffffffffffffffffffffff1681526020019081526020015f205490505f81116103d3576040517f08c379a00000000000000000000000000000000000000000000000000000000081526004016103ca90610bc0565b60405180910390fd5b5f915060025460055f8573ffffffffffffffffffffffffffffffffffffffff1673ffffffffffffffffffffffffffffffffffffffff1681526020019081526020015f205410156104bd575f60055f3373ffffffffffffffffffffffffffffffffffffffff1673ffffffffffffffffffffffffffffffffffffffff1681526020019081526020015f2054426104679190610c0b565b9050600c8111156104bb5762093a808111156104845762093a8090505b62093a80600354826001548561049a9190610c3e565b6104a49190610c3e565b6104ae9190610cac565b6104b89190610cac565b92505b505b50919050565b5f8054906101000a900473ffffffffffffffffffffffffffffffffffffffff1673ffffffffffffffffffffffffffffffffffffffff163373ffffffffffffffffffffffffffffffffffffffff1603610550576040517f08c379a000000000000000000000000000000000000000000000000000000000815260040161054790610d26565b60405180910390fd5b5f61055a336102ab565b60045f3373ffffffffffffffffffffffffffffffffffffffff1673ffffffffffffffffffffffffffffffffffffffff1681526020019081526020015f20546105a29190610d44565b90505f60045f3373ffffffffffffffffffffffffffffffffffffffff1673ffffffffffffffffffffffffffffffffffffffff1681526020019081526020015f20819055505f60055f3373ffffffffffffffffffffffffffffffffffffffff1673ffffffffffffffffffffffffffffffffffffffff1681526020019081526020015f2081905550610632338261093e565b60075f81548092919061064490610d77565b919050555060075460065411610678575f6001819055505f6002819055505f6003819055505f6006819055505f6007819055505b50565b60075481565b60035481565b6005602052805f5260405f205f915090505481565b60065481565b5f8054906101000a900473ffffffffffffffffffffffffffffffffffffffff1681565b5f3411610707576040517f08c379a00000000000000000000000000000000000000000000000000000000081526004016106fe90610e08565b60405180910390fd5b5f8054906101000a900473ffffffffffffffffffffffffffffffffffffffff1673ffffffffffffffffffffffffffffffffffffffff163373ffffffffffffffffffffffffffffffffffffffff16036107bd575f60015414801561076b57505f600254145b6107aa576040517f08c379a00000000000000000000000000000000000000000000000000000000081526004016107a190610e96565b60405180910390fd5b346001819055504260028190555061089a565b3460045f3373ffffffffffffffffffffffffffffffffffffffff1673ffffffffffffffffffffffffffffffffffffffff1681526020019081526020015f205f8282546108099190610d44565b925050819055504260055f3373ffffffffffffffffffffffffffffffffffffffff1673ffffffffffffffffffffffffffffffffffffffff1681526020019081526020015f208190555060065f81548092919061086490610d77565b91905055505f60015414801561087b57505f600254145b15610899573460035f8282546108919190610d44565b925050819055505b5b565b5f8054906101000a900473ffffffffffffffffffffffffffffffffffffffff1673ffffffffffffffffffffffffffffffffffffffff163373ffffffffffffffffffffffffffffffffffffffff161480156108f757505f600354145b6108ff575f80fd5b5f4790505f811115610935576109345f8054906101000a900473ffffffffffffffffffffffffffffffffffffffff168261093e565b5b50565b60025481565b5f8273ffffffffffffffffffffffffffffffffffffffff168260405161096390610ee1565b5f6040518083038185875af1925050503d805f811461099d576040519150601f19603f3d011682016040523d82523d5f602084013e6109a2565b606091505b50509050806109af575f80fd5b505050565b5f80fd5b5f73ffffffffffffffffffffffffffffffffffffffff82169050919050565b5f6109e1826109b8565b9050919050565b6109f1816109d7565b81146109fb575f80fd5b50565b5f81359050610a0c816109e8565b92915050565b5f60208284031215610a2757610a266109b4565b5b5f610a34848285016109fe565b91505092915050565b5f819050919050565b610a4f81610a3d565b82525050565b5f602082019050610a685f830184610a46565b92915050565b610a77816109d7565b82525050565b5f602082019050610a905f830184610a6e565b92915050565b5f82825260208201905092915050565b7f5374696c6c206e6f20726577617264206279207465616d2e00000000000000005f82015250565b5f610ada601883610a96565b9150610ae582610aa6565b602082019050919050565b5f6020820190508181035f830152610b0781610ace565b9050919050565b7f4e6f20626f6479206465706f73697421000000000000000000000000000000005f82015250565b5f610b42601083610a96565b9150610b4d82610b0e565b602082019050919050565b5f6020820190508181035f830152610b6f81610b36565b9050919050565b7f4e6f20796f7572206465706f73697400000000000000000000000000000000005f82015250565b5f610baa600f83610a96565b9150610bb582610b76565b602082019050919050565b5f6020820190508181035f830152610bd781610b9e565b9050919050565b7f4e487b71000000000000000000000000000000000000000000000000000000005f52601160045260245ffd5b5f610c1582610a3d565b9150610c2083610a3d565b9250828203905081811115610c3857610c37610bde565b5b92915050565b5f610c4882610a3d565b9150610c5383610a3d565b9250828202610c6181610a3d565b91508282048414831517610c7857610c77610bde565b5b5092915050565b7f4e487b71000000000000000000000000000000000000000000000000000000005f52601260045260245ffd5b5f610cb682610a3d565b9150610cc183610a3d565b925082610cd157610cd0610c7f565b5b828204905092915050565b7f496e76616c6964207769746864726177207573657200000000000000000000005f82015250565b5f610d10601583610a96565b9150610d1b82610cdc565b602082019050919050565b5f6020820190508181035f830152610d3d81610d04565b9050919050565b5f610d4e82610a3d565b9150610d5983610a3d565b9250828201905080821115610d7157610d70610bde565b5b92915050565b5f610d8182610a3d565b91507fffffffffffffffffffffffffffffffffffffffffffffffffffffffffffffffff8203610db357610db2610bde565b5b600182019050919050565b7f496e73756666696369656e7420616d6f756e74000000000000000000000000005f82015250565b5f610df2601383610a96565b9150610dfd82610dbe565b602082019050919050565b5f6020820190508181035f830152610e1f81610de6565b9050919050565b7f5374696c6c206e6f7420636f6d706c6574652070726576696f757320726f756e5f8201527f6400000000000000000000000000000000000000000000000000000000000000602082015250565b5f610e80602183610a96565b9150610e8b82610e26565b604082019050919050565b5f6020820190508181035f830152610ead81610e74565b9050919050565b5f81905092915050565b50565b5f610ecc5f83610eb4565b9150610ed782610ebe565b5f82019050919050565b5f610eeb82610ec1565b915081905091905056fea2646970667358221220f6dc51d72175eb796a73e2f0a15250d02ff72b63f01077a0b88defedf2add76c64736f6c63430008170033",
  "immutableReferences": {},
  "source": "//SPDX-License-Identifier: MIT\npragma solidity >= 0.8.0 < 0.9.0;\n\ncontract ZLEthPool {\n    address public team;\n\n    uint public reward;\n    uint public rewardAddedAt;\n\n    uint public depositsBeforeReward;\n    mapping(address => uint) public userDeposits;\n    mapping(address => uint) public userDepositedAt;\n    uint public countDeposits;\n    uint public countWithdraws;\n\n    constructor() {\n        team = msg.sender;\n        reward = 0;\n        rewardAddedAt = 0;\n    }\n\n    function deposit() payable external {\n        require(msg.value > 0, 'Insufficient amount');\n\n        if (msg.sender == team) {\n            require(reward == 0 && rewardAddedAt == 0, 'Still not complete previous round');\n            reward = msg.value;\n            rewardAddedAt = block.timestamp;\n        } else {\n            userDeposits[msg.sender] += msg.value;\n            userDepositedAt[msg.sender] = block.timestamp;\n            countDeposits++;\n\n            if (reward == 0 && rewardAddedAt == 0) {\n                depositsBeforeReward += msg.value;\n            }\n        }\n    }\n\n    function calcReward(address user) view public returns (uint userReward)  {\n        require(reward > 0 && rewardAddedAt > 0, 'Still no reward by team.');\n        require(depositsBeforeReward > 0 && countDeposits > countWithdraws, 'No body deposit!');\n\n        uint userDeposit = userDeposits[user];\n        require(userDeposit > 0, 'No your deposit');\n\n        userReward = 0;\n        if (userDepositedAt[user] < rewardAddedAt) {\n            uint diff = block.timestamp - userDepositedAt[msg.sender];\n            if (diff > 12 seconds) {\n                if (diff > 1 weeks) diff = 1 weeks;\n                // TODO: We can apply more interesting reward calc model.\n                userReward = ((userDeposit * reward * diff) / depositsBeforeReward) / 1 weeks;\n            }\n        }\n    }\n\n    function withdraw() external {\n        require(msg.sender != team, 'Invalid withdraw user');\n\n        uint userAmount = userDeposits[msg.sender] + calcReward(msg.sender);\n\n        userDeposits[msg.sender] = 0;\n        userDepositedAt[msg.sender] = 0;\n        _sendBalance(msg.sender, userAmount);\n\n        countWithdraws++;\n        if (countDeposits <= countWithdraws) {\n            reward = 0;\n            rewardAddedAt = 0;\n\n            depositsBeforeReward = 0;\n            countDeposits = 0;\n            countWithdraws = 0;\n        }\n    }\n\n    function clearPool() external {\n        require(msg.sender == team && depositsBeforeReward == 0);\n\n        uint balance = address(this).balance;\n        if (balance > 0) {\n            _sendBalance(team, balance);\n        }\n    }\n\n    function _sendBalance(address to, uint amount) private {\n        (bool success,) = payable(to).call{value: amount}(\"\");\n        require(success);\n    }\n}\n",
  "sourcePath": "/media/yrh/WORK/1.projects/jobhunt/mxc-solidity/solidity-challenge/contracts/ZLEthPool.sol",
  "compiler": {
    "name": "solc",
    "version": "0.8.23+commit.f704f362.Emscripten.clang"
  },
  "schemaVersion": "3.4.16",
  "updatedAt": "2024-01-04T08:23:40.489Z",
  "networkType": "ethereum",
  "devdoc": {
    "kind": "dev",
    "methods": {},
    "version": 1
  },
  "userdoc": {
    "kind": "user",
    "methods": {},
    "version": 1
  }
}